:020000040800F2
:10000000F0FF0120E915050801B5040811E9010810
:100010006116050861160508611605080000000054
:1000200000000000000000000000000005B504080A
:1000300009B50408000000000DB50408D5A70108A3
:1000400061160508611605086116050861160508A0
:10005000611605086116050859B4000861B4000866
:1000600069B4000871B4000879B4000899B10008B7
:10007000ADB10008C1B10008D5B10008E9B1000870
:10008000FDB1000811B2000861160508000000006B
:1000900000000000000000000000000081B4000823
:1000A00041E10008D9E0000851E10008C9E000087A
:1000B00001E1000811E1000821E1000889AC000815
:1000C000D5C0000891AC0008D9C000086116050829
:1000D00061160508F9A6010805A70108000000003F
:1000E00089B400086116050819DA04080000000048
:1000F00000000000000000000000000025B2000821
:100100000000000069CE000831E100086116050812
:1001100000000000000000000000000000000000DF
:1001200039B200084DB2000861B2000875B200088B
:1001300089B200080000000000000000000000007C
:1001400000000000000000000000000011B50408DD
:100150009DB20008B1B20008C5B2000811A701089D
:1001600099AC0008DDC0000800000000000000009D
:10017000000000000000000000000000000000007F
:1001800000000000611605080000000000000000EB
:0801900061160508611605085F
:080198007C11050001000000CC
:1001A0000E02010002000000083800201038002074
:1001B00000000000C41406080C380020FF210100D4
:1001C00005000000F837002018380020000000006B
:1001D00059FF000814380020053001000800000015
:1001E000F03700202438002000000000C814060862
:1001F000203800201302010004000000DC3700203A
:100200003038002000000000D01406082C380020F0
:1002100014020100050000007C2B0020383800206B
:1002200000000000D4140608343800200620010025
:1002300028000000282E0020443800200000000084
:100240008DFE000840380020160215003F00000017
:10025000D02A002070380020000000008DFF000828
:100260006C38002015001000700000005C97002022
:10027000D09700200000000000000000CC97002074
:100280002A00080060000000FC960020449800202E
:1002900000000000FD170308409800202C00040017
:1002A00010000000EC960020A8980020000000003C
:1002B000490C0308A498002025201E002C010000F2
:1002C000C0950020BC980020000000000000000045
:1002D000B89800202B001200240000007895002020
:1002E000EC99002000000000590C0308E899002058
:1002F000031101000A00000040840020149A00202D
:1003000000000000550B0408109A0020292014005A
:1003100078000000D4810020249A00200000000012
:1003200000000000209A00200B3001001A0000009D
:1003300060810020A09A002000000000DC14060864
:100340009C9A00200D1001004C0000000C81002040
:10035000C09A00200000000029F50108BC9A002086
:100360000C60040078000000587A0020109B0020E8
:1003700000000000996502080C9B0020012001008C
:100380000C000000D07A00208C9B002000000000B0
:10039000F6140608889B00202700010004000000D6
:1003A000447B00209C9B00200000000002150608F2
:1003B000989B00202320010010000000347B0020C7
:1003C000A49B00200000000015960308A09B0020BD
:1003D0000E80040090020000C4770020B89B00202B
:1003E00000000000DD170308B49B0020220201007A
:1003F0001C0100004C8400204C9E002000000000E6
:10040000AD150108489E00201F020B0016000000D9
:10041000849F00206C9F00200000000069FF0008FE
:10042000689F00201B02010010000000B09F002008
:10043000A09F00200000000035FF00089C9F0020C6
:100440002802040004000000C89F0020C49F002070
:100450000000000029FF0008C09F002027020400C0
:1004600004000000D49F0020D09F00200000000066
:100470001DFF0008CC9F0020001201000A000000B0
:10048000E89F0020DC9F00200000000075FE0008AF
:10049000D89F00201A0201003C00000034A0002078
:1004A000F89F00200000000089070108F49F002049
:1004B0002E020100040000008487002074A00020A8
:1004C00000000000517B010870A00020040008001B
:1004D000800000008C8700207CA00020000000002D
:1004E0000000000078A000201C0202001C00000098
:1004F0007C81002000A1002000000000E50601082A
:10050000FCA0002026300100080000002C880020FC
:1005100020A10020000000008D0A04081CA100207A
:10052000081203000F0000001C8800202CA10020EE
:100530000000000019FE000828A100200A90010018
:1005400024000000487B002040A1002000000000A3
:10055000299603083CA10020031201003D00000081
:10056000E088002068A100200000000006150608B1
:1005700064A10020FD170100A0000000D48B002022
:10058000ACA10020000000005B090408A8A1002025
:1005900013100100040000005881002050A2002028
:1005A00000000000441506084CA20020F5C101001F
:1005B00074000000CC83002058A20020000000003E
:1005C000C911040854A20020020201000300000027
:1005D000CC8B0020D0A2002000000000EDFF00081E
:1005E000CCA20020F62101000C000000688200204F
:1005F000D8A200200000000048150608D4A2002060
:10060000121201000400000034B60020E8A200200D
:1006100000000000F9FE0008E4A200201102010021
:100620000800000038B60020F0A200200000000002
:1006300005FF0008ECA200203400010010000000BB
:1006400040B60020FCA2002000000000AD05030819
:10065000F8A20020F831010006000000FC80002014
:1006600010A3002000000000541506080CA3002071
:10067000021001000C000000808800201CA3002054
:10068000000000005C15060818A30020FE01010010
:10069000140000004C8200202CA300200000000069
:1006A000F5FD000828A30020061203001200000038
:1006B0006C88002044A30020000000006D060108A3
:1006C00040A30020F7010100060000006082002026
:1006D0005CA30020000000006815060858A3002055
:1006E000FC0101000900000050B6002068A30020B2
:1006F0000000000049FF000864A30020FB01010086
:10070000010000005CB6002078A30020000000007B
:1007100051FF000874A300201A0001000E00000021
:100720000C88002080A30020000000006E15060841
:100730007CA30020141001000500000004810020AB
:1007400094A30020000000009905030890A3002056
:10075000FD01010021000000FE860020A0A3002072
:1007600000000000277B01089CA300201D0202005E
:1007700006000000F8860020C8A30020000000004A
:1007800000000000C4A30020184001003800000051
:1007900098810020D4A3002000000000E907010890
:1007A000D0A30020F90101000400000060B6002081
:1007B00010A4002000000000DD7A01080CA4002035
:1007C0001230010010000000FC76002018A4002068
:1007D000000000007C15060814A400201F50010032
:1007E0002400000018C100205CC2002000000000AE
:1007F0008C15060858C20020384001000600000091
:1008000048B7002084C2002000000000B015060890
:1008100080C2002016300100080000003CBB002010
:1008200090C2002000000000B61506088CC200200F
:100830001010010002000000F8B800209CC2002047
:1008400000000000BE15060898C200201900010033
:10085000050000002CBF0020A4C200200000000002
:10086000C0150608A0C20020206201000C00000094
:10087000E0B70020B0C2002000000000C615060846
:10088000ACC200202F20010022000000C0C20020C6
:1008900098B7002000000000D2150608BCC2002056
:1008A0002D020100010000008CC5002098C5002029
:1008B000000000000000000094C500202902010093
:1008C0004000000084C30020A0C5002000000000FC
:1008D000F41506089CC50020010101000400000079
:1008E00030C50020E4C5002000000000000000002A
:1008F000E0C5002000010100040000002CC500201C
:10090000ECC500200000000034160608E8C50020F1
:10091000020101000300000028C50020F4C50020EA
:1009200000000000A95F0208F0C500202A120100A3
:1009300008000000FCC30020FCC5002000000000EF
:1009400038160608F8C50020030001000100000069
:10095000D8E50020E4E700200000000000000000CF
:10096000E0E70020050201000400000030C700207D
:10097000ECE700200000000040160608E8E7002031
:100980002C02010004000000FCC6002014E8002036
:10099000000000004416060810E800202332010081
:1009A0001400000090EB0020B8EE002000000000D2
:1009B00048160608B4EE00200902010001000000FC
:1009C000A01D0120BC290120000000005C160608C3
:1009D000B82901201002010001000000B83A0120EE
:1009E000B43A0120000000005E160608B03A01206B
:1009F000120100020000004083042057000201029F
:100A000003010000040309041A03000000000000B1
:100A100000000000000000000000000000000000D6
:100A200000000000FFFFFFFF0000000000000000CA
:100A30000100000000000000000000008B2A0020E0
:100A400000000000010000000000000000000000A5
:100A50000000000000000000000000000000000096
:100A60000000000000000000000000000000000086
:100A70000100000000000000FF00000000600240D4
:100A800010600240000000000000000000000000B4
:100A9000000B00000000000000000000000000004B
:100AA00000600240286002400100000000000000D9
:100AB00000000000060C0000000000000000000024
:100AC00000000000006002404060024002000000A0
:100AD0000000000000000000100D000000000000F9
:100AE000000000000000000000600240586002406A
:100AF000030000000000000000000000160E0000CF
:100B00000000000000000000000000000060024043
:100B100070600240040000000000000000000000BF
:100B2000200F000000000000000000000000000096
:100B300000600240886002400500000000000000E4
:100B4000000000002610000000000000000000006F
:100B50000000000000600240A060024006000000AB
:100B60000000000000000000301100000000000044
:100B7000000000000000000000600240B860024079
:100B8000070000000000000000000000362F0000F9
:100B900000000000000000000000000000640240AF
:100BA000106402400000000000000000000000008F
:100BB00000380000000000000000000000000000FD
:100BC00000640240286402400100000000000000B0
:100BD00000000000063900000000000000000000D6
:100BE0000000000000640240406402400200000077
:100BF0000000000000000000103A000000000000AB
:100C00000000000000000000006402405864024040
:100C1000030000000000000000000000163B000080
:100C2000000000000000000000000000006402401E
:100C3000706402400400000000000000000000009A
:100C4000203C000000000000000000000000000048
:100C500000640240886402400500000000000000BB
:100C6000000000002644000000000000000000001A
:100C70000000000000640240A06402400600000082
:100C800000000000000000003045000000000000EF
:100C9000000000000000000000640240B864024050
:100CA00007000000000000000000000036460000C1
:100CB000000000000000000000000000000004012F
:100CC0000000020001000002100000000700000008
:100CD000A1E30008758E000815CA0008B98E000847
:100CE00025E4000869E40008BD8E000828050020FE
:100CF000859D00084D8D0008718D0008958D0008B8
:100D0000998D0008FD8D0008718E000804050020F3
:100D1000E9A30408F976040871A2040800000000A1
:100D200000000000BD960408F996040800000000C9
:100D3000000000000000000039770408198C00084A
:100D4000258C0008319D0008099D0008318C0008A1
:100D50004D9D0008699D00082A00000000800202E5
:100D60001F00000053544D202020202050726F643B
:100D7000757420202020202020202020302E30318B
:100D8000008002021F00000053544D20202020202C
:100D900050726F6475742020202020202020202095
:100DA000302E303175770408797704087D77040890
:100DB000897704088D77040881770408857704080B
:100DC000FFFF0000FFFFFFFF01000000C59F0008BC
:100DD00021B80008359F0008ADE40008519E0008C6
:100DE000CD9F0008C18E0008298F00083D8F0008A4
:100DF0000101FF00B4520508E85205081C5305081C
:100E0000FFFFFFFF0001010100000000FFFFFFFFE7
:100E1000ACA1050800000802050303000000000063
:100E2000B4A1050801000802050403000000000049
:100E3000BCA1050800000802050303000000000033
:100E4000C4A1050801000802050403000000000019
:100E5000B0FD05080200FE010110030000000000C3
:100E6000B898050803001402000300000000000009
:100E7000CCA1050804001F0202000B0000000000C6
:100E8000D4A1050805001F0202010B0000000000AC
:100E90000000803F00000000000000000000000093
:100EA0000000803F00000000000000000000000083
:100EB0000000803F00000000000000000000000073
:100EC000020000007D00000001000000FFFFFFFFA6
:100ED00048A20508D4A5050800000000EDF40108AB
:100EE000A08601000400000048A2050894F9050846
:100EF00000000000BD850108E803000004000000B8
:100F00008C9905080000000000000000A16902089B
:100F10007D000000FF000000589D05080000000053
:100F200000000000318702087D000000FF00000083
:100F30008C03060800000000000000000D470308B5
:100F40007D000000FF00000060A605080000000012
:100F500000000000918D0108E8030000030000007C
:100F60004C9F05080000000000000000A1370308A6
:100F70001027000003000000C8A1050800000000C1
:100F8000310E0308A1A901085F76000005000000EA
:100F90003CA8050800000000000000007DF10108E9
:100FA00010270000020000009CF905080000000066
:100FB00000000000957C0108E80300000500000027
:100FC000A8F9050800000000000000007163020895
:100FD000204E000003000000B8F9050800000000E2
:100FE000000000001D7D0208204E000003000000EC
:100FF000C8F905080000000000000000C5890108CC
:10100000400D03000300000024A3050800000000B9
:1010100000000000A1560208102700000200000096
:10102000009E050800000000000000002DCD010812
:10103000A861000002000000B09B0508000000004D
:1010400000000000897D0108102700000200000058
:1010500044A80508000000000000000049D5010870
:10106000A00F0000020000002CA3050800000000F3
:101070008F090408694D040885450100020000003D
:10108000709B05080000000000000000611F0408BC
:101090001027000002000000E0A505080000000085
:1010A00000000000F5C6030850C300000200000065
:1010B000D8F9050800000000000000000D31040808
:1010C000400D030001000000E0F9050800000000E9
:1010D000000000009D35040850C30000030000001C
:1010E000ECF905080000000000000000357A020855
:1010F00040420F0001000000F8F905080000000060
:101100000000000071F5010850C30000010000005C
:1011100004FA050800000000000000002D3E04084D
:101120001027000002000000FFFFFFFFA9F50108E3
:10113000000000000000000000000000355F020811
:10114000000000000000000000000000010100009D
:10115000FFFFFF7F000000800000000000E800208B
:101160000800000000000000F0E700200800000078
:101170007EFF7EFFE2FFE2FFFFFFFFFFBCE80020F3
:1011800010E9002001F11F3F98EE0020A6EE00209C
:10119000D6010000FF1FFF1F0D56020800000000CF
:1011A00000000000000000000000FA430000FA43C5
:1011B0000000803F00000000000000000000000070
:1011C000000000000000000000000000000000001F
:1011D0000000000000000000040000000000803F4C
:1011E00000FF00000000000000000000A99F0308AD
:1011F0000000000000000000D879050801FF000091
:10120000F1D3030800000000000000003090050842
:10121000000000000000000000000000A07E0508A3
:10122000000000000000000000000000587F0508DA
:10123000000000000000000000000000047F05081E
:1012400001000000FA0000000100000001000000A1
:10125000000000000000000039CF03085FF4002008
:101260009D0004080000000000000000047E050846
:10127000218304080000000000000000787D0508BC
:10128000A7FB03080000000000000000307D0508F7
:101290002D202D2D202D2D2D2D202D2D2D0000002C
:1012A000000000000000000000000000000000013D
:1012B0000100000014F0002088136F1701000000E7
:1012C00016F0002088136F170000000018F00020AF
:1012D00088136F17010000001AF0002088136F17A1
:1012E00000000000599F03080000000000000000FB
:1012F000987A050897F4002001000000EC7A0508B0
:101300001DF0002001000000F87A0508C4F000205C
:1013100002000000007B0508819F03080000000018
:10132000000000000C7B0508000000000000000029
:1013300000000000607B05080000000000000000C5
:1013400000000000D07B050812F000200200000021
:10135000187C050874F80020E0150C170000000048
:10136000C01200004AF90020000000000000000048
:1013700048F90020000000000000000046F90020AD
:10138000000000000000000044F900200000000000
:101390000000000042F900200000000000000000F2
:1013A00040F900200000000000000000080B0020B1
:1013B00000000000000000001CF0002003000000FE
:1013C000087C05080000000000000000000000008C
:1013D000247C05084EF90020E0150C1700000000E1
:1013E00050F9002002000000187C05082D202D2D4A
:1013F000202D2D2D2D202D2D2D2D00000000000045
:1014000000000000000000000000000000000000DC
:1014100000000000000000005C7C050852F900207C
:101420009CFF2C01000000004EF80020E0150C1776
:1014300000000000B2F7002002000000187C050840
:101440002D202D2D202D2D2D2D202D2D2D2D00004D
:10145000000000000000000000000000000000008C
:10146000000000000000000000000000947C05085F
:10147000B2EF002000C80100B1EF002000500100D1
:10148000B0EF0020005A0100AEEF00200200000083
:10149000F047050898000608A0000608A6F20020FC
:1014A0000100C40900000000A4F200200100C409EA
:1014B00000000000A2F200200100C40900000000AA
:1014C000A0F200200100C409000000009CF20020EE
:1014D0000100C409000000009EF200200100C409C0
:1014E000000000009AF200200100C4090000000082
:1014F00098F200200100C40900000000F7EF00206E
:1015000000C80100F6EF002000C80100F4EF002041
:101510000000FFFF0A000000F2EF00200100C800F9
:1015200001000000F0EF00203200307532000000B2
:10153000EEEF0020E2FF140005000000ECEF0020B9
:101540007EFF140005000000EAEF002005002C01DA
:1015500005000000E8EF0020055A0500FDEF00201F
:1015600000FF0100FBEF0020020000003C0C002007
:10157000F9EF002003000000A07F0508FCEF002029
:1015800000FF0100FAEF0020020000003C0C0020E8
:10159000F8EF002003000000A07F0508D4F0002031
:1015A000FF7F0100D0F0002000000000FFFFFFFFE0
:1015B00001000000CCF0002000000000FFFFFFFF52
:1015C00001000000C8F0002000000000FFFFFFFF46
:1015D000010000007AEF0020EE02CA0801000000BE
:1015E00079EF002000C801006400000078EF0020BF
:1015F00001C801006400000077EF00200100000036
:10160000B07F050810F000200000803E05000000BB
:101610000EF0002080C1803E050000000CF000208C
:101620000083007D050000000AF0002080C1803E9C
:101630000500000008F0002000FF010006F0002077
:101640006400F4010100000004F000206400F401D3
:101650000100000002F000206400F401010000001D
:1016600000F0002004000000B04B0508FFEF002050
:1016700002000000A44B050876EF0020590000008E
:101680005C49050874EF002003000000B87F0508DE
:1016900075EF002004000000C44B0508E1EF0020B6
:1016A00003000000C87F0508E0EF002003000000F1
:1016B000C87F0508D4EF0020000A0100D2EF002007
:1016C0000000E80301000000D0EF00200000E80364
:1016D00001000000CEEF0020000A0100CCEF002046
:1016E0000000E80301000000CAEF00200000E8034A
:1016F00001000000C2EF0020C800E8030100000064
:10170000C8EF00201400FA0001000000C6EF00201E
:101710000100E80301000000C4EF00200005010003
:10172000C0EF002002000000B0480508BEEF002016
:101730000000F40101000000BCEF00200000F401F3
:1017400001000000BAEF00200000F40101000000D9
:10175000B8EF00200000F40101000000B6EF002007
:101760000000E80301000000B4EF00200000E803DF
:10177000010000009DEF0020196401009CEF002093
:1017800002000000A448050891EF00200064010059
:1017900090EF00200064010098EF00200064010039
:1017A0000A00000097EF0020006401000A0000001A
:1017B00096EF0020006401000A0000009BEF00206B
:1017C00000FF01000A0000009AEF002000FF010066
:1017D0000A00000099EF002000FF01000A0000004D
:1017E00095EF002001FF01000A00000094EF0020A7
:1017F00001FF01000A00000093EF002001FF01003B
:101800000A000000DEEF00200000F40101000000EB
:10181000DCEF00200000E80301000000DAEF002008
:101820000000E80301000000D8EF00200000E803FA
:1018300001000000D6EF00200000E80301000000D6
:101840005EF40020000101005CF40020E803D007F2
:101850000A0000005AF40020006401000A000000A1
:1018600058F40020E803D0070A00000056F40020D6
:10187000006401000A00000055F4002000960100F9
:101880004CF4002000C801004BF40020006401006B
:101890004AF400200064010049F4002000640100C3
:1018A00048F400200064010047F40020FF08010014
:1018B00046F4002001640100019A0308459A0308D8
:1018C00000000000D87F05084FF40020013201001D
:1018D0004EF4002001000000784805084DF4002077
:1018E000040000008048050845F40020009601002F
:1018F00044F400200064010043F4002000FA0100D9
:101900006400000042F400200AFA010041F40020C3
:101910000AC8010040F40020006401003FF40020E8
:10192000006401003EF400200A5A01003DF400204A
:1019300000C801003CF4002000C8010052F400205F
:101940000032010054F400200014010053F4002080
:10195000005F010051F4002004000000B4470508B6
:1019600050F40020006401000A0000008BEF00200A
:101970000AC805000A0000008AEF002001000000EC
:10198000284C05088DEF00200AC805000A00000059
:101990008CEF002001000000284C050882EF002099
:1019A00000C805000A00000089EF002000C80500FB
:1019B0000A00000083EF002000C805000A000000B4
:1019C00084EF002000C805000A00000087EF002017
:1019D00000C805000A00000088EF002000C80500CC
:1019E0000A00000086EF002000C805000A00000081
:1019F00085EF002000C805000A00000081EF0020EC
:101A000002000000804705083AF400200000D007DB
:101A10000100000035F4002000C8010034F400206B
:101A200000C8010033F4002000C8010038F4002091
:101A30000000D0070100000032F4002000C80100BF
:101A400031F4002000C8010030F4002000C801007B
:101A500036F400200000D007010000002FF4002021
:101A600000C801002EF4002000C801002DF4002061
:101A700000C801000C0B060800000000000024F95B
:101A80000020180B060807080000000014120020B0
:101A9000200B06080708000000000C120020280B8D
:101AA000060807080000000004120020300B06089A
:101AB000080800000000F8110020380B060807088D
:101AC00000000000F0110020400B0608070800008D
:101AD0000000E8110020480B06080708000000007D
:101AE000E0110020500B0608080800000000D41187
:101AF0000020580B0608071000000000CC11002041
:101B0000600B0608071000000000C4110020680BDD
:101B10000608071000000000BC110020700B06082A
:101B2000081000000000B0110020C0FE05080100F0
:101B30000000000000000000000000001000000095
:101B40000000000000000000559C0308659C03088D
:101B50003DB2030848800508E7EF0020005A010065
:101B6000E6EF002000C80100E4EF0020E803D00702
:101B700001000000000000000000000081DB0308FD
:101B8000E480050880F3002003000000704705088A
:101B9000E19C0308359D030800000000388105081A
:101BA000899D0308C99D030800000000E081050825
:101BB000D9B0030841D50308000000006082050881
:101BC000FEEF0020010301005DA0030885A00308CB
:101BD00000000000808505086998030891980308B3
:101BE0000000000000860508299E0308899E03085E
:101BF0000000000064860508E9CF03082D9803085B
:101C0000000000001C870508419C0308000000003C
:101C100000000000A8870508019B03086D9B0308CE
:101C2000000000000C880508899A0308C59A03087B
:101C300000000000C4880508D9070408CD990308EE
:101C400000000000508905082BF40020030000006C
:101C500014F90020D19B03080D9C0308000000002C
:101C6000308A050821080408D5D2030800000000C6
:101C7000A08A050845990308B1D1030800000000B7
:101C80008C8C05087D07040871D103080000000052
:101C90001C1200202CF4002003000000D0F80020CB
:101CA000819C0308B19C030800000000988D050882
:101CB000C5C603080000000000000000FC8D0508F8
:101CC000119E03085DD5030800000000988E0508EA
:101CD000000000000000000000000000088F050860
:101CE000F10604083DD1030800000000788F0508C4
:101CF00001AA5507010000AA5505010000010800CE
:101D0000B801012000000000B00101200000000027
:101D10000101AA550902000000AA5503009F000016
:101D200001000000AA550B010000AA5505010000A2
:101D300014010000FF00000009024300020100C07E
:101D4000320904000001020201000524001001050F
:101D50002401000104240202052406000107058273
:101D6000030800FF09040100020A00000007050142
:101D700002400000070581024000000009026400E3
:101D8000030100C032090400000103000000092122
:101D9000110100012236000705830309000A080B20
:101DA0000102020201000904010001020201000512
:101DB0002400100105240100020424020205240667
:101DC0000102070582030800FF09040200020A005D
:101DD00000000705010240000007058102400000E5
:101DE00009022000010104C03209040000020806B3
:101DF0005005070581024000000705010240000070
:101E000012010002EF020140830456320002010277
:101E10000301000012010002020200408304405747
:101E20000002010203010000040309040101000093
:101E300005010905A101A100050109300931093297
:101E4000093309350934093609371581257F7508A5
:101E50009508810205091901290815002501950831
:101E600075018102C0C0000009022200010100E0EA
:101E700032090400000103010200092111010001DF
:101E80002236000705830309000AFF000000000056
:101E90000102030401020304060708090D9D04085A
:101EA000AD9D0408F59704082176040829A10408CB
:101EB00005760408ED7504083176040841760408B7
:101EC000000000000000000025A20408A576040818
:101ED00009A1040800000000D576040859A20408EE
:101EE000B98F0408918F0408000000000000000072
:101EF000C9760408457704086977040891B4040892
:101F000075B40408ADB40408C9B40408E5B4040801
:101F100079A1040881760408F99E040800000000F5
:101F200051760408ED8D04088D8E0408698F04082D
:101F300000000000000000007576040800000000AA
:101F400079E90008FDE8000895CA0008F1E70008F3
:101F5000B1E50008458F0008598F00086D8F000813
:101F60000000000000000000010203040607080949
:101F70001C1700200000000000000000000000000E
:101F80000000000000000000000000000000000051
:101F90000000000000000000000000000000000041
:101FA0000000000000000000000000000000000031
:101FB0000000000000000000000000000000000021
:101FC0000000000000000000000000000000000011
:041FD000000000000D
:10800000074BD0F8E4105B68D0F8F0205B1A9A4276
:10801000B8BFC0F8F030012380F81C310020704751
:10802000001000E0B74B00EB800270B503EBC20418
:1080300053F832205268B2F814C01CF0010F4FEA16
:1080400080016AD15FFA8CFE1EF0020F3DD0BFF3B3
:108050005F8F257F012D5FFA85FC00F0CC80148BAB
:10806000BFF35F8F0C1803EBC404257F022D00F0D3
:10807000E3800C1803EBC404257F032D06D1A47FF5
:1080800024B193F87940002C40F0E5809488A4B2A4
:1080900044F48064948093F978C001EB000E03EB04
:1080A000CE0E9EF81CE00EF1010EE6450CD1002428
:1080B00083F8794093F87A40002C40F0B680084469
:1080C00003EBC00300225A7670BD1EF0040F5BD193
:1080D0001EF0400E00F0C880158A93F978C0666AD9
:1080E000EDB206F80C505FFA8CFE267F0EF101040B
:1080F00064B2E51CAE4283F87840A44600F02A81C1
:108100000D1803EBC5052D7FAC42C6D10EF1020C54
:108110004FFA8CFC83F878C0BFE7B2F800C02CF4AB
:10812000006C4FEA0C4C4FEA1C4CA2F800C0B2F8AD
:1081300000C01FFA8CFC4CF4806CA2F800C0A57F34
:108140004FF0000C83F878C0002D46D093F879509A
:10815000002D3FD0012483F879400C1803EBC404B0
:10816000247F022C04D11488A4B244F40064148047
:108170000C1803EBC404A47E44F0010414820844E8
:1081800003EBC0031B7F70BDA57F4FF0010C83F88C
:108190007AC0002D6FD093F87950002D70D10C1853
:1081A00003EBC404647F002C00F0AE80148893F8C5
:1081B00078C0A4B244F400740CF1010C14804FFA9E
:1081C0008CF483F87840B2F800C01CF4807FFAD1B8
:1081D000A44662E7E47EFF2CBCD00C1803EBC40479
:1081E000A57E05F0FE051582E27EFF2AC7D0FF229C
:1081F00083F87820C3E7A47F002C3FF430AF93F8D6
:108200007940002C3FF42BAF148824F480642404BC
:10821000240C1480BFF35F8F148B148883F87AC00A
:10822000A4B244F40074148030E7948824F44074B9
:108230002404240C948042E7A47F002C3FF419AF5F
:1082400093F87940002C3FF414AF148824F4806430
:108250002404240C1480948824F480642404240CC2
:10826000948093F978C018E71FFA8CF52D0631D465
:1082700093F978C011E793F87940002C8FD095E7F7
:10828000257F022D15884AD925F480652D042D0CF3
:108290001580158A666A93F978C0EDB206F80C501D
:1082A000666A1488A4B244F4007414805FFA8CFCEB
:1082B000158A0CF1010464B2EDB2355595880CF1C4
:1082C000020CADB24FFA8CF445F4806583F8784027
:1082D000958078E793F978506E1C42D0266A765DD7
:1082E0001682247F05F1010C4FFA8CFC644583F85B
:1082F00078C07FF4D2AE948824F480642404240CE3
:108300009480CAE6801700201488A4B244F48074D4
:108310001480012483F8794093F9784053E7ADB293
:1083200045F400751580158A666A93F978C0EDB238
:1083300006F80C505FFA8CFC666A158A0CF1010491
:1083400064B2EDB20CF1030C35554FFA8CF483F89E
:10835000784038E7958825F480652D042D0C9580AC
:10836000CEE6E57E1582A57F83F878E01DB9247FEF
:10837000002C7FF404AF948824F480642404240C3B
:108380009480FCE61B4B01681B4A03F5727C03E0FA
:1083900063452CD053F82C2F9142F9D170B593F846
:1083A00004E0427996450AD0634505D053F82C2F56
:1083B0009142F4D06345F9D14FF0FF3070BD9E4635
:1083C0008468DEF80C50A5424FF0000208D001325C
:1083D000032A0EF10C0EE7D0DEF80C50A542F6D1C0
:1083E000DEF81050C668B542F1D150B270BD4FF002
:1083F000FF307047602C05080000014030B5EAB13D
:108400008E464FEA014C034600F1C005002419686E
:108410009A6841EA0C0142EA0E029A60C3E900142C
:108420000C33AB42F3D1D0F8C030C0F8C44043EABB
:108430000E03C0F8C030C0F8C84030BD4FEA014E4E
:108440008C46E0E783691969B3F80CC00A6830B458
:108450009C6822F0010224680A60A28992B222EA92
:108460000C02A281027D04681F2A06D96568203AA1
:1084700008209040284246D0FEE72568082090401A
:108480002842F9D1202000FA02F2A260274A92F88D
:108490007B20002A35D01A7E012A39D0D3F8F42067
:1084A0000132C3F8F420EFF31181502282F31288D5
:1084B00058685C6C026822EA04029C6C2243C9B2D0
:1084C000026081F31188D3E90C401A6999681D6C28
:1084D000096814605061D3E90E4054609060002434
:1084E000B3F8A800D5604C62C8621068012420432C
:1084F00010601C7683F8F1408A899B8913439BB2F4
:108500008B8130BC7047202000FA02F2E260BDE7A8
:10851000002283F8F120D3F8F8000A68013022F035
:108520000102C3F8F8000A60EBE700BF80170020E3
:1085300010B40C4CE36F002B11DD002004F1800C13
:108540000146DCF8A03003F1C00259600C339342BD
:10855000FBD1E36F013083420CF5807CF1DC5DF8E8
:10856000044B704780170020704700BF024B03EB9D
:10857000401090F89D047047801700204368B0F8C1
:10858000502010B41A83EFF31182502383F3128822
:108590004168446C0B6823EA0403C46C2343D2B2E1
:1085A0000B6082F31188D0E9074182680369126881
:1085B0001C605961D0E909415C60C46A9960B0F8F7
:1085C0006010DC600023D1625DF8044B03767047D5
:1085D0000C2911D8DFE801F0231010101910101029
:1085E000111010100700838B23F400631B041B0C75
:1085F00043EA022292B282837047838B23F00803FE
:108600001B041B0C1A4382837047038B23F4006303
:108610001B041B0C43EA022292B202837047038BB5
:1086200023F008031B041B0C1A430283704700BF8E
:10863000704700BF0B4890F8B41589B101EB4101B8
:10864000002310B4490000F2BC501C4650F823200F
:10865000063302B114608B42F8D15DF8044B7047C9
:10866000704700BF801700200B4890F8B41589B1FF
:1086700001EB4101002310B4490000F2BC501C463C
:1086800050F82320063302B114609942F8D15DF806
:10869000044B7047704700BF8017002001207047CF
:1086A000034B00EB400003EBC00090F8CD05704792
:1086B0008017002007EE900AB8EE670A704700BFE7
:1086C000BCEEC00A10EE103A98B27047C84BD3F80F
:1086D0007C16D3F8802670B58C0F83F8B046C1F3B2
:1086E000836483F8B146C1F3016483F8B246100E87
:1086F000C1F3074483F8B3460001C1F30724C9B2AC
:1087000083F8B44683F8B516A3F8B606B3F8B616E0
:10871000C2F3035089B20143C2F30344A3F8B6166F
:10872000C2F3C03083F8B846C2F34031C2F380349C
:1087300083F8B90683F8BA4683F8BB16C2F3003152
:1087400083F8BC1693F8081700200129C2F3072C00
:1087500083F8BD0640F2F380022900F0C580D3F80B
:1087600084162A204FEA4C0C0CF07E0C83F8C94684
:1087700083F8CAC693F8CA46C1F3C0121443D3F8AB
:10878000882683F8CA4601F07F01D40F83F8CB1600
:1087900083F8CC46910DC2F3417483F8CD4601F0C5
:1087A0000C01C2F3826483F8CE4683F8CF1693F8A7
:1087B000CF16C2F381542143C2F3405583F8CF163C
:1087C00083F8D056002583F8D156C2F3004583F8CC
:1087D000D256C2F3C03583F8D356C2F3803583F83E
:1087E000D456C2F3403583F8D556D3F88C46C2F33D
:1087F000003583F8D656C2F3812583F8D756C4F3E3
:108800000741C2F30125C2F3460283F8D8564FF060
:10881000010C83F8D9260902220E83F8DAC683F800
:10882000DC26A3F8DE16B3F8DE16C4F3072289B2FD
:1088300011432406A3F8DE16D3F89016C3F8E046D9
:10884000D3F8E0260C0E42EA0442C3F8E026D3F83F
:10885000E0460A0A02F47F422243C3F8E026D3F836
:10886000E056D3F89426C1F307242C43C9B2C3F8C9
:10887000E04683F8E416110E83F8E516110C09069C
:10888000C3F8E816D3F8E846110201F47F0121434A
:10889000C3F8E816D3F8E816120292B20A43C3F8F6
:1088A000E826D3F8E816D3F8982641EA1261C3F80F
:1088B000E81693F8EC16C2F30354214383F8EC1640
:1088C000110A01F47061A3F8EE16B3F8EE16C2F3C4
:1088D000072489B22143C2F34602A3F8EE1683F8B7
:1088E000F02683F8F1C670BD120402F47C12C3F8BE
:1088F000C026D3F88416D3F8C0260C0E42EA042210
:10890000C3F8C026D3F8C046C1F307422243C3F8D8
:10891000C026D3F8C026013240F10004A40244EA84
:1089200092549202C3F8F8264FF40072C3F8FC4642
:10893000C1F3072CC3F80027C1F3803412E74FEAD4
:108940008C2C0CF44061C3F8C016D3F8C01692000A
:1089500002F47F720A43C3F8C026D3F8C046D3F8A6
:10896000841644EA9174C3F8C046C1F3C265C1F3EA
:10897000026483F8C456CA0B83F8C546C1F3425457
:1089800083F8C64602F00602C1F3824483F8C74664
:1089900083F8C82693F8C826C1F3C034224383F86D
:1089A000C826D3F8C04693F8C82693F8B8E6961CB4
:1089B000012202FA0EF5B240D617A2FB052E05FBE6
:1089C00006EE04FB0EEE0134A2FB0424A644520A78
:1089D00042EACE52C3F8F8264FEA5E22C1F3072CD2
:1089E000C3F80057C3F8FC26C1F38034BAE600BFD1
:1089F0008017002010B50C2937D8DFE801F0973632
:108A0000363666363636373636360700038C5488A7
:108A1000B2F80CE023F480531B041B0C0384038C7A
:108A2000B0F804C0818B21F4E6414EEA040E09043B
:108A3000148823F40053090C41EA04211B04754CEB
:108A40001B0C43EA0E33A0421FFA8CFC9BB289B286
:108A500000F0AE8004F58064A04200F0A980926826
:108A6000A0F804C081830264038410BD038CB2F8B3
:108A70000CC0548823F480731B041B0C0384038CE8
:108A8000B0F804E0818B23F400731B044CEA040C5F
:108A900021F073011B0C43EA0C230904B2F800C057
:108AA000090C41EA0C0C5B4988421FFA8EFE9BB20E
:108AB00068D001F58061884264D09268A0F804E033
:108AC000A0F81CC0C263038410BD038CB2F80CC0B4
:108AD000548823F010031B041B0C0384038CB0F890
:108AE00004E0018B23F020031B044CEA040C21F466
:108AF000E6411B0C43EA0C130904B2F800C0090C50
:108B000041EA0C211FFA81FC424988421FFA8EFE7D
:108B10009BB269D001F58061884265D09268A0F867
:108B200004E0A0F818C08263038410BD038C54884D
:108B3000B2F80CE023F001031B041B0C0384038C2C
:108B4000B0F804C0018B21F073014EEA040E090451
:108B5000148823F00203090C1B0421432D4C1B0C29
:108B600043EA0E03A0421FFA8CFC9BB228D004F506
:108B70008064A04224D09268A0F804C001834263BC
:108B8000038410BDD189548A23F4006343EA012190
:108B9000138A2EF4405E23434EEA031E94884FF658
:108BA000FF330B4043EA04231FFA8EFE9BB284E797
:108BB000148A2CF4804C4CEA841C1FFA8CFC4EE77F
:108BC000D489B2F810E023F008032343548A2CF42C
:108BD000407C4EEA040E948823F004034CEA0E0C09
:108BE0001FFA8CFC2343C6E7D189548A23F0800303
:108BF00043EA0111138A2EF4406E23434EEA830E9A
:108C000094884FF6BF730B4043EA04131FFA8EFE9D
:108C10009BB283E700000140122301480B8070479C
:108C200098010020042301480B807047AC0100200C
:108C30002048D0F8E837D0F8EC2730B59B184FF033
:108C40001A040C8001D11C4830BD1B4AD0F8EA1729
:108C50004FF0000E10467546B3F1204F4FEA137CDB
:108C60000CF130040EF1020E2ABF0CF1370C8470A7
:108C700080F802C0BEF1100FC5704FEA031300F177
:108C80000200E9D100200446B1F1204F4FEA1173F0
:108C900003F1300C00F102002ABF373382F812C012
:108CA00093740828D4744FEA011102F10202EBD147
:108CB000014830BD00F0FF1FB001002082B01F4B03
:108CC000002201920193019B1D4A04330193019BF1
:108CD0001968936803F00C03042B07D0082B0AD003
:108CE000184B194AC3F80C2702B07047154BC3F84C
:108CF0000C1702B070475368506813F4800F00F0EF
:108D00003F00536813D1C3F388130F49B1FBF0F14F
:108D100001FB03F30A4A0B495268C2F301420132D4
:108D20005200B3FBF2F3C1F80C3702B07047C3F343
:108D30008813B1FBF0F101FB03F3EBE7502800408F
:108D400000380240801700200024F40038B5074B9B
:108D5000D3F810371B6A14460D4698474FF400733A
:108D600002682A600020236038BD00BF8017002001
:108D700008B5074BD3F8103733B15B69984780F0DB
:108D80000100404240B208BD4FF0FF3008BD00BFB7
:108D900080170020002070472DE9F04123B3164DC5
:108DA000164688469F18D5F810470023A4681A462F
:108DB00041463046A0470028F5D0D5F8103733B1EA
:108DC0005B69984720B9D5F81037002BF8D1FEE73A
:108DD0000136B74208F50078E5D1D5F81437C5F863
:108DE00018370020BDE8F081034DD5F81437C5F8D9
:108DF00018370020BDE8F081801700202DE9F041F0
:108E00005BB31A4C16460F4603EB020804E0D4F895
:108E1000101719B14B699847D4F810170D69002342
:108E20001A4639463046A8470028F0D1D4F8103702
:108E300033B15B69984720B9D4F81037002BF8D1CB
:108E4000FEE70136B04507F50077E5D1D4F81437D1
:108E5000C4F818370020BDE8F081044CD4F814376A
:108E6000C4F818370020BDE8F08100BF801700204B
:108E7000002070470E4838B5D0F870370D461446BC
:108E80003BB11A689B881269134090F86D2752B164
:108E90005BB9FFF71BFC074A4FF40073926C2A6022
:108EA0000020236038BD002BF3D14FF0FF3038BDD8
:108EB00080170020301E00200020704700207047DF
:108EC000034B93F84007003818BF0120704700BFDC
:108ED00080170020826D136A5B681B78FF2B08D017
:108EE00090F8F030013BDBB280F8F0301BB101208C
:108EF000704700207047126A526802201370704752
:108F0000836D1B6A5B681B78FF2B0AD190F8F030E9
:108F1000002B03F1FF3280F8F02014BF0120022063
:108F200070470020704700BF034B93F840070328A9
:108F300094BF002001207047801700200048704730
:108F4000C41E0020034B93F84007003818BF0120CF
:108F5000704700BF80170020034B93F84007032899
:108F600094BF002001207047801700200048704700
:108F7000C41E002030B4194B00209C7B14B11D6826
:108F80008D4206D001300B2803F11003F5D130BC1F
:108F900070479AB1124B03EB40218A4219D0114B12
:108FA00093F8E4278AB1104B01225A7000F5B17092
:108FB00003EB00100123837130BC70470A4B00F5AE
:108FC000B17003EB00108271E1E7012283F8E4271E
:108FD000E9E7022CE3D1183BE8E700BFC84E0020C8
:108FE000C8380020B0480020B038002030B41D4CF4
:108FF000002384F8D03604F5C36004E001330B2B62
:1090000000F1100015D005688D42F7D190F80EC020
:10901000BCF1030FF2D1C2B1134901EB43208242EC
:1090200009D1A1F1180203F5B17302EB0313012278
:109030009A7130BC704794F8E42712B9012284F881
:10904000E4270A4A01215170EDE70849D4F8CC26FB
:1090500003F5B17301EB0313013204219971C4F8D4
:10906000CC26E6E7B0480020C8380020B038002001
:10907000A8B183681BB10E4B07229A7070470C4A47
:109080001178D36003294FF004000CBF80214FF406
:109090008071C2E901111361137590707047044A21
:1090A00002F580510123537081F8E437704700BF07
:1090B000B0380020164BD0F8E0105A6810B50446BE
:1090C000D0F8D80071B1131A99420BDC94F8D03063
:1090D000C4F8D820012B10D0D4F8D4300133C4F810
:1090E000D43010BDD4F8E430C4F8D8200344C4F818
:1090F000DC3094F8D030012BEED104F1E801201DD2
:1091000010F09EFDD4F8D4300133C4F8D43010BD33
:10911000001000E010B5124C12498CB000238446B8
:109120000DF107000122CDE90230069104F27470BE
:1091300002A904928DF82820CDE907338DF8143068
:1091400009930B9384F80CC810F07AFDD4F87427B7
:10915000136A002BFCD19DF807000CB010BD00BFB6
:1091600080170020018F000830B51E4D91B00023FC
:10917000FD200DF103010122CDE905318DF8030039
:1091800001A905F27470CDE90133CDE90732CDE9CB
:109190000A33CDE90C33C5F83C378DF810308DF823
:1091A00024300F9303928DF8382010F049FDD5F844
:1091B00074371C6A002CFCD10120FFF7ABFFFF289D
:1091C00009D0D5F81437C5F830370922204685F87C
:1091D000402711B030BD0423022085F8403711B07C
:1091E00030BD00BF8017002030B5114C91B0002376
:1091F000CDE9013003910122022501A904F2747026
:10920000CDE90533CDE90735CDE90A33CDE90C3396
:109210008DF810308DF824300F938DF8382010F031
:109220000FFDD4F87437186A0028FCD111B030BD96
:1092300080170020F0B5836993F8DC20012A8BB0F9
:10924000054627D0023A012A2FD893F84C21D3F8AB
:109250009C10174C62F07F030B708669D6F8A03023
:109260005F1C0FCCEC46ACE80F00D6F89C30CDE983
:1092700000370FCCACE80F0094E803008CE8030043
:10928000694606F1100010F0DBFCAB6919690A6A47
:10929000002AFCD1D3F8A0305A8852BAEA819A88C1
:1092A00052BA2A82DB885BBA6B8201200BB0F0BD18
:1092B00054300508F0B590F8DC30D0F8A060012BF0
:1092C0008BB004464BD015D8D0F89C304FF0FF320D
:1092D0001A605A609A60DA60D0F8E0300522B3F57F
:1092E0007A7FC0F8F02054D8032380F8DC300120C6
:1092F0000BB0F0BD023B012BF9D890F84D31D0F8FE
:109300009C203A4D63F07F031370D0F8A0305F1CAF
:109310000FCDEC46ACE80F00D4F89C30CDE9003717
:109320000FCDACE80F0095E803008CE80300694618
:1093300004F1100010F084FC2269136A002BFCD1A8
:1093400073885BBAA4F8D030B3885BBAA4F8D23083
:10935000F38801205BBAA4F8D4300BB0F0BD90F8CC
:109360004C2190F84D319B1A5B100133DBB206EBB8
:10937000430236F813305BBAA0F8D03053885BBA9A
:10938000A0F8D23093885BBAA0F8D43001200BB09B
:10939000F0BD03691A7B2AB35B691BB390F8983060
:1093A00003B390F84C31D0F89C20C4F8A40063F0CB
:1093B0007F03137090F84C1190F84D31D0F8A02035
:1093C0000B48C4F804015B1A07330121C4F8FC30D0
:1093D000D4F89C3084F800110A44C4E93D3284F882
:1093E000DC1084E7022384F8DC3080E75430050881
:1093F0000180000810B50E4C94F84037032B10D8AC
:1094000094F834370133DBB2072B84F834379BBF31
:10941000D4F81427C4F830270023012384F84037F8
:1094200010BD044810F0A0FBA4F87807E8E700BFDF
:1094300080170020801A0600094AD2F870376BB1F5
:1094400019689B88086992F86D17034021B12BB108
:10945000002382F840377047002BF9D0CAE700BFDD
:10946000801700200C4AF8B5136855692B4003EAB1
:10947000000555617DB1094F0126B5FA85F4C4F1A7
:109480001F0407EB840306FA04F4D3F810080368FA
:109490009847A543F1D1F8BD003C0140801700205A
:1094A000038A2DE9F047B0F80C901FFA89F919EA00
:1094B00003092BD005460E464FF000474FF0000839
:1094C000B9FA89F327FA03F2D24391B21B3B2982FE
:1094D00009EA0209042B16D8DFE803F0352C231A19
:1094E0000300B36A002B37D003F1FF3A1FFA8AFA60
:1094F000C6F82880746A34B12368204651469847DC
:109500006468002CF8D1B9F1000FD9D1BDE8F0871B
:109510007068696B036889B29847B9F1000FCFD1C1
:10952000F4E7B068A96B036889B29847B9F1000FF6
:10953000C6D1EBE7F068E96B036889B29847B9F1E7
:10954000000FBDD1E2E73069296C036889B2984702
:10955000B9F1000FB4D1D9E7E96A1FFA81FAC9E776
:109560002DE9F0412F4F07EB401898F89C340BB9C8
:10957000BDE8F0818C2303FB00730E4693F852285C
:1095800088F88224002183F852180446450110F01F
:1095900093FAC0BB3D442448A5F8806400EB441016
:1095A00010F0EAF897F87B30D5F89824A3B1D5F8F5
:1095B0008414D2F8A03001248C4003F1C001420091
:1095C00010F4004F90B202D15A6822435A600C3313
:1095D0009942F4D1BDE8F081D5F88444D2F8A030A6
:1095E00004F110020124944003F1C001420010F480
:1095F000004F90B202D15A6822435A600C3399420C
:10960000F4D1BDE8F08197F8103D03EB430307EB7D
:10961000C303234493F8BD6C002EBBD0012388F80C
:109620008234B7E780170020001C002070B5214C61
:1096300094F8112D94F8103D9A4236D194F8123DC9
:10964000E3B194F8135D1C4B002040F20D3CB5B122
:109650009A68998951601668196846F00106166083
:10966000A1F848C08A8992B242F480728A8194F843
:10967000122D0130824203F11803E8DC70BD1A6834
:10968000118821F080010904090C11809988D162A8
:10969000118889B241F0800111805562998A9689BA
:1096A000314389B291819D82E1E745F011FF0028A5
:1096B000C4D170BD80170020942400202DE9F84FFC
:1096C000037D02681F2B044608D95068A3F12005CA
:1096D0002021A940014206D1BDE8F88F1068202161
:1096E00099400142F8D04C494C4D4968C5F8D41D09
:1096F00095F8131DA66901BB8C2101FB0651D1F819
:109700005808D1F8D0C80768DCF80000B1F85CE868
:1097100020F00100CCF80000B98989B221EA0E01DD
:10972000B98195F87B10E9B91F2B68D9A3F1200105
:1097300020238B40D360BDE8F88F8C2101FB0651BC
:10974000D1F858180F690868396821F001013960AB
:10975000818921F480710904090C818195F87B10BD
:109760000029E1D08C2706FB07F705EB070B2C49F6
:10977000DBF8D098DBF8583807F118084846D3F8DA
:1097800000A0884441F016F8D5F8DC3D24490122B8
:109790008BF8A428002B38D0BAF800309BB243F0E5
:1097A0008003AAF8003074374FF0FF333944CAF809
:1097B0002C30504641F072FD8C2303FB06560023EB
:1097C0004146C6F87438484641F08AF8D6F8D03891
:1097D00016225A601A6842F001021A60D6F8582818
:1097E000B6F85C38126891890B439BB293810A49A1
:1097F000237D49682268C5F8D81D1F2B96D82021E3
:1098000001FA03F39360BDE8F88F11F091F8044971
:10981000C5F8DC0DC0E700BF001000E08017002095
:10982000D01F0020274B5B68C3F308032DE9F041EC
:10983000002B3AD1EFF31183BBBB11F057F805466B
:10984000214F204E4FF00008FC6F002C29DD002333
:109850001A4607EB0321013391F871119C4242EA49
:109860000102F6D142EA0804E4B290467368C3F3F9
:1098700008039BB9EFF3118383B911F037F8431B49
:10988000B3F5FA6F02DCB8F1000FDDD11CB197F827
:10989000E03D542B0DD02046BDE8F08110F0B8FF1C
:1098A000EDE744464FF00008E0E710F0B1FF054651
:1098B000C6E7B7F8E83D0133A7F8E83D2046BDE824
:1098C000F08100BF00ED00E0801700202DE9F0419D
:1098D000234D95F8112D95F8103D9A4239D1EE6F30
:1098E000002E12DD002495F87B701E48A04601343E
:1098F00017B1037E012B27D002691368B44243F0ED
:10990000010300F580701360F1D1174B5B68C3F35E
:109910000803B3B9EFF311839BB910F0E7FFD5F853
:10992000F44D002C0BDD114A02EBC404116893883E
:109930008889083203439BB294428B81F6D1BDE8FB
:10994000F08110F065FFEAE780F8F080FEF716FE80
:10995000D2E745F0BDFD0028C1D1BDE8F08100BFD0
:10996000801700200018002000ED00E0782500207E
:109970002DE9F04F2DED028BC24F83B097F87B306D
:1099800001932BB9012003B0BDEC028BBDE8F08F31
:10999000D7F8143708EE103A07F5906A07F61869F9
:1099A0004FF0000BB84BD3F810315B4540F3E48027
:1099B000DAF81830DAF80450D3E93A84AD0010F040
:1099C000B7FF05F1085505EB481597F8E08D864679
:1099D00004F1806197F8200F3939B8F1540F05EB85
:1099E000811105EB801301D1A7F8EA0D994240F2ED
:1099F00028811A68002A00F01D811A6C002A00F0E4
:109A00002D81D3F88020002A00F02A81D3F8C020CD
:109A100003F58073002AE9D15D1B99424FEAA51531
:109A200040F20F81611B45294FF0000428BF4521FA
:109A300003EB81119C46204626460DE01A6C002A55
:109A400040F0A380D3F88020002A40F0C980D3F8EA
:109A5000C02003F580732AB9994206D91A68002AF2
:109A6000ECD04033994200F29480112E344640F2FB
:109A7000EC80D6F1150200F1E88084494B6B9D42E1
:109A8000D7F8243F38BF4D63AEEB0301002916DB46
:109A900003F5F42303F590739E4588BF0EF105038B
:109AA000C7F8243F794B79495B6B052B86BF053B93
:109AB000DBB2002387F8203F4FF0FF334B6342B106
:109AC00000FA02F2C4F11404012000FA04F444EA9A
:109AD00002006F4AC0F3C43302EB8303D3F81C14B3
:109AE00000F01F0302EB8303D3F81C3443EA013375
:109AF000C0F3441102EB8101C0F3842002EB80002B
:109B0000D1F81C2443EA0213D0F81C2443EA0223B0
:109B100083EA132282EA121202F00F020F2A7AD18C
:109B2000B3F5803F77D2B8F1540F4FEA131304D145
:109B3000B7F8E42D0132A7F8E42DD7F8202EB3F5BD
:109B4000606F02F10102C7F8202E00F0A780019992
:109B5000A9F80C304F4B5C2018EE102A00FB0B309C
:109B60000FF040FF0BF1010BBBF1080F0AF1200AC7
:109B700009F114097FF416AF0123012087F81C3F77
:109B800003B0BDEC028BBDE8F08F803399427FF6C5
:109B90006CAFA3EB0C029211541C3F4A82FB04C22F
:109BA000A2EBE472012AB8BF0122904001241644BE
:109BB000013A04FA02F210431C46226892B1226C68
:109BC000002A4FD0D4F88020002A4DD0D4F8C020ED
:109BD00004F580743AB1A142EFD89C4623463BE796
:109BE000C0333FE74034A142F7D9E31A9B115A1C16
:109BF000294B83FB02C3A3EBE273012BB8BF012304
:109C000098401E440122013B02FA03F31843234605
:109C10009C46234620E7B8F1540F27D0D7F8203EC2
:109C20000133C7F8203ED7F81C3E0133C7F81C3E6D
:109C300000218FE740335D1B99424FEAA5153FF69F
:109C4000F1AE10B1013887F8200FB8F1540F89D167
:109C5000B7F8E63D0133A7F8E63D83E78033DBE65E
:109C6000C033D9E68034BEE7C034BCE7B7F8E43D82
:109C70000133A7F8E43DD7F8203E0133C7F8203E72
:109C8000D1E700BF8017002078280020980100202D
:109C9000602C0508A82600205655555597F8102D1C
:109CA00002EB420207EBC2025A4492F8BD2C0D2A85
:109CB0007FF44DAF8023019989F81E304AE700BF39
:109CC00010B5044648F09EFA81B22046BDE8104027
:109CD00046E400BF38B50B4D00EB400005F2BC5325
:109CE00003EBC00393ED027AD3ED037AE7EE007A3B
:109CF000C4002C44B0EE670A48F084FAD4F8BC35AE
:109D0000186038BD801700200A4608B5054920B9FB
:109D1000054841F087FB034808BD044841F082FB39
:109D2000004808BD8C290020149605083C960508BB
:109D300010B5044C04480A46214641F073FB204606
:109D400010BD00BF8C2900206496050810B5044C96
:109D500004480A46214641F065FB204610BD00BF7D
:109D60008C2900207896050810B5044C04480A4652
:109D7000214641F057FB204610BD00BF8C29002032
:109D800084960508002110B5084610F027FB094C01
:109D900044F0E2FF02E05B69984720B9D4F810373D
:109DA000002BF8D1FEE7D4F81437C4F81837002098
:109DB00010BD00BF8017002010B592B00A0E0446F7
:109DC0008DF805200A0A0023080C44F0400C8DF899
:109DD00007200122CDE90733CDE90D338DF804C00A
:109DE0008DF806004FF0950C17488DF80810049375
:109DF0008DF818300A928DF82C300F938DF8402092
:109E0000119301A906220DF103038DF809C00C90EE
:109E100003910592099344F06FFF00B98CB90B4C84
:109E2000082303A904F2747084F80C380FF008FFBB
:109E3000D4F87427136A002BFCD19DF8030012B0EC
:109E400010BDFF2012B010BD018F00088017002048
:109E50002DE9F041324C0546884617461E4694F8D7
:109E6000400704283AD0082807D1D4F83837AB4245
:109E700006D0FFF779F90228F1D00120BDE8F08182
:109E8000FC21284BD4F8742783F81312264B117B3E
:109E9000C3F8608051B1526942B194F8FC27002A9E
:109EA0000CBF4FF480724FF4007201E04FF48072E7
:109EB0009A661E491E480FF0C3FE01220623C4F80D
:109EC0001C87C4F82057C4F82877C4F82C6784F896
:109ED000242784F840370020BDE8F08194F8363715
:109EE00053B969021820FFF767FF38B994F8403773
:109EF000082BC5D0FE21C4E72946F3E7D4F8742720
:109F0000136A002BFCD145F06BFDD4F87C3713B1FC
:109F10001A689B881383FFF78FFA0320AEE700BF10
:109F2000801700207828002098010020D001002010
:109F3000F41E00202DE9F843214D95F84047042CEC
:109F40008046894617461E4608D0082C02D00020BD
:109F5000BDE8F883FFF708F90228F8D195F83637FD
:109F6000B3B141461120FFF727FFC0B9D5F8143728
:109F7000C5F81C97052285F84027C5F82087C5F845
:109F80002877C5F82C67C5F830370120BDE8F8837D
:109F90004FEA48211120FFF70FFF0028E6D0D5F83F
:109FA00074371C6A002CFCD145F01AFDD5F87C37BB
:109FB000002BCCD01A689B8813832046BDE8F88319
:109FC00080170020807845F01BBB00BF2DE9F041D1
:109FD000B94C94F86C6794B0002E00F0538194F85B
:109FE000403704F25C775A1E082A00F2C280DFE88C
:109FF00012F03B007200B700C000D300FC001B0051
:10A00000C000090044F078FE002840F00F83D4F827
:10A010003037D4F81427FA33934280F0A780FFF743
:10A020000BFA94F84037DEE744F066FE0028EED0E5
:10A03000D4F83C270023012A84F8343740F22283E5
:10A04000D4F83817013A01310823C4F83C27C4F882
:10A05000381784F84037A3F10806B6FA86F6760971
:10A06000304614B0BDE8F08100210846FFF7A4FE99
:10A07000D4F874270546136A002BFCD145F0B0FCD8
:10A08000D4F87C3713B11A689B881383012D6DD1E6
:10A090004FF0000840F2AB11082084F83587FFF735
:10A0A0008BFE052800F0B681012800F01881D4F855
:10A0B0007427136A002BFCD145F092FCD4F87C374E
:10A0C00013B11A689B88138394F83537002BC0D0DE
:10A0D000022384F8403794F835370021022B0CBF57
:10A0E0004FF080450D463720FFF766FE29462920B0
:10A0F000FFF762FED4F874270546136A002BFCD1E3
:10A1000045F06EFCD4F87C3713B11A689B88138332
:10A1100065BB94F83537022B00F0D38184F83657AD
:10A1200000210920FFF748FE002800F07881002573
:10A13000D4F87427136A002BFCD145F051FCD4F8F5
:10A140007C3713B11A689B8813837DB100210A20E4
:10A15000FFF732FE002840F09B81032384F840374C
:10A160000820FEF7D7FFFE2800F0DD8094F8403786
:10A170005A1ED2B2022A0BD8D4F81427D4F83017BA
:10A18000521AC82A7FF667AFFFF756F994F840379E
:10A19000042B7FF460AF63E70820D4F81C57FEF768
:10A1A000B9FFFF2800F08481FE2800F08980D4F8F0
:10A1B0007427136A002BFCD145F012FCD4F87C37CD
:10A1C00013B11A689B881383FFF736F9D4F8285720
:10A1D000002D00F0A5800022D4F82C37D4F82017E9
:10A1E0001046A84794F84037FDE6D4F87427117B51
:10A1F000136A00294CD05269002A49D094F8FC27F0
:10A20000002A45D0B3FA83F35B09002BAED004AA31
:10A21000002305920222CDE906320DF10F020B92C6
:10A220002648ADF81030012205A9CDE90933CDE962
:10A230000E33CDE910338DF820308DF83430139380
:10A240000C928DF848200FF0FBFCD4F874371D6A8F
:10A25000002DFCD19DF80F3003F01F03052B00F0FB
:10A26000F981FFF7E9F8D4F82887B8F1000F57D043
:10A27000D4F82C37D4F820172A460120C04794F888
:10A280004037B0E6304684F8406714B0BDE8F0814E
:10A29000D4F81C3794F8240703EB002044F00AFD9F
:10A2A00094F824370133DBB284F82437A3F1020396
:10A2B000B3FA83F35B09A8E780170020F41E00209F
:10A2C0004FF400712846FEF78FFF002800F032811E
:10A2D000012800F0ED8002283FF469AF46E704ABA7
:10A2E0000693BD488DF83450042305A9CDE90988AB
:10A2F000CDE90B88CDF814808DF82080CDF838801A
:10A3000007930FF09DFCD4F87427136A002BFCD13F
:10A310009DF81330AB2B04BF022384F83537C8E611
:10A3200094F840375FE6102105A8FEF75DFF00288E
:10A330007FF41CAFBDF815209DF81C309DF814105B
:10A3400084F84A1752BAA4F848279DF8172084F8D1
:10A350004B279DF8182084F84C279DF8192084F885
:10A360004D279DF81A2084F84E279DF81B2084F86D
:10A370004F2703F00F011A099DF8213084F8542764
:10A380001B019DF82220DDF81D0084F85517DBB273
:10A3900043EA121302F00F0200BA03F5FA6384F8DD
:10A3A0005827D4F87427C4F85007A4F85637136A0E
:10A3B000002BFCD145F014FBD4F87C3713B11A689C
:10A3C0009B88138394F83637ABB94FF40071102093
:10A3D000FFF7F2FCD4F874270546136A002BFCD172
:10A3E00045F0FEFAD4F87C3713B11A689B881383C2
:10A3F000002D7FF414AE79480FF0B6FB0022042341
:10A40000A4F878073046C4F83C2784F8403714B0E5
:10A41000BDE8F081D4F8742784F8355749E6082060
:10A42000FEF778FEFE287FF482AE10213846FEF754
:10A43000DBFE00287FF47BAE94F86B37DB077FF5FB
:10A4400076AE94F85C17891100F0978001297FF4AB
:10A450006EAE94F86327DFF888C19200D2B216215D
:10A460000225C5F108038B4228BF0B46C3F108053E
:10A470002A419840C91A40EA02004FF000051CF832
:10A48000012FEED1431C9B02C4F8443735464FE6FA
:10A49000D4F87427136A002BFCD145F0A1FAD4F844
:10A4A0007C37002B3FF4BBAD1A689B881383B6E55D
:10A4B000D4F83037D4F8142764339342FFF477AEDE
:10A4C00054E629463A20FFF777FC04AB06930423B1
:10A4D00007938046012340488DF8343005A9CDE923
:10A4E0000955CDE90B5505958DF820500E950FF0C7
:10A4F000A7FBD4F874371A6A002AFCD1B8F1000F10
:10A5000011D11A6A002AFCD145F06AFAD4F87C37D6
:10A5100013B11A689B881383049B1BBAC3F380731F
:10A5200084F83637FCE51A6A002AB6D01A6A002A7F
:10A53000F9D1B2E7D4F87427136A002BFCD145F0A7
:10A540004FFAD4F87C3713B11A689B881383D4F878
:10A5500028570423002084F8403784F83407002D5E
:10A560003FF47EADD4F82C37D4F81C27D4F820174C
:10A57000A84794F840375A1EFBE594F8613794F8E1
:10A580006507DFF860E003F00F03800101255FFA43
:10A5900080FC9D4006200323C0F108029A4228BF98
:10A5A0001A46C2F108004CFA00F091409B1A41EAA9
:10A5B00000011EF801CF4FF00000EDD194F862E7E2
:10A5C000DFF824804FEA8E1E02315FFA8EFE4FF0D4
:10A5D0000C0C06220BE000BFF41E002040787D0129
:10A5E000E31E0020E51E0020E21E00200022C2F132
:10A5F0000802624528BF6246C2F108004EFA00F028
:10A600009340BCEB020C18F801EF43EA0003EDD1D4
:10A6100001338B40E917A3FB055203FB01226D0AAE
:10A6200045EAC255C4F84457354681E5D4F8742745
:10A63000136A002BFCD1019045F0D2F9D4F87C3795
:10A64000019813B11A689B881383042384F8403758
:10A65000064605E5D4F82857D4F81427C4F830275F
:10A66000072384F84037002D3FF4F5ACD4F82C379D
:10A67000D4F81C27D4F820170120A84794F84037B5
:10A680005A1E76E515D00423D4F8742784F8403791
:10A69000136A002BFCD145F0A3F9D4F87C37002BCA
:10A6A0003FF464AD1A689B88138394F840375A1EB0
:10A6B0005FE5FEF759FD02287FF458ADD4F87437F2
:10A6C0001A6A002AFCD1E6E790F8DB30052B03D8A4
:10A6D00090F81E31032B01D00020704790F82331F1
:10A6E00003F0FB03022B0CBF00200720704700BFC4
:10A6F000274A92F8123D7BB3D2F8141D884237D016
:10A70000012B29D0D2F82C1D814235D0022B23D029
:10A71000D2F8441D884231D0032B1DD0D2F85C1DE5
:10A7200088422DD0042B17D0D2F8741D884229D02E
:10A73000052B11D0D2F88C1D884225D0062B0BD0CA
:10A74000D2F8A41D884221D0072B05D0D2F8BC1D19
:10A75000814208BF07230CD003EB430102EBC10188
:10A7600003F1010CC1F8140D82F812CD18467047A0
:10A770000023DBB2184670470123FAE70223F8E70B
:10A780000323F6E70423F4E70523F2E70623F0E7C3
:10A7900080170020F8B52B4F8C2505FB007595F828
:10A7A0005F3803B9F8BD04460E460FF085F938BB93
:10A7B0008C2505FB04752448A5F8506804EB840437
:10A7C000C4EBC40400EB84000EF0D6FF97F8133DF1
:10A7D000024623BB1D4BD5F8D808D3F8143201210B
:10A7E0009847D5F8D418B5F85C488A8AD5F8D03897
:10A7F00022438A8258601A6842F001021A60F8BD4A
:10A8000097F8103D03EB430307EBC303234493F88E
:10A81000BD6C002ECCD0012385F85238C8E7D5F89E
:10A820005838D5F8D4185B790869084903F0FC0357
:10A830001844D1F8143204219847D5F8D438800050
:10A840009881F8BD80170020D01F002078280020B4
:10A85000F8B5D0F8805086680446284637683FF03F
:10A86000A9FF002284F8542038467179FDF7B0FE24
:10A87000717904F16002FEF7BDF871790822FDF7E5
:10A88000A7FE4023636204F11801284640F028F82F
:10A890002B6843F010032B60F8BD00BF2DE9F04F8B
:10A8A0006A4F2DED028B97F87B4085B034B90124B7
:10A8B000204605B0BDEC028BBDE8F08FD7F8143709
:10A8C00008EE103A10F034F8614B029093F84C32D5
:10A8D000002B00F0B58107F5056507F6287A07F625
:10A8E000186B00260FE02846FFF7B2FF584B93F88D
:10A8F0004C3201369E4205F18C050AF15C0A0BF1DF
:10A90000140B80F2A980D7F8DC3D029AD31A03D445
:10A91000AA6D9342C0F27D818C2303FB067393F8EA
:10A92000A43803F0FF020192002BDCD0AB68A989A8
:10A930001A68D5F880305B681FFA83FE9389CEF1E0
:10A94000160E9BB223EA0103BEF1070F9381CAD909
:10A95000D7F8203E0133C7F8203ED5F8883003935E
:10A960009C46002201215CF8044B904689461BE07E
:10A97000DCF80000B8F1140FA0EB04031DDC13F1A8
:10A98000080448BF03F11704231108EB24180446F8
:10A99000581E013102FA03F38E4509FA00F242EA29
:10A9A00003020CF1040C08D38E45E1D8C8F115035D
:10A9B000DCF800404FF01508EAE7B8F1150F39D17F
:10A9C0002448C2F38423C2F3441100EB830300EB59
:10A9D0008101D3F89C34D1F89C141B0243EA011383
:10A9E00002F01F0100EB8101C2F3C43200EB8202CE
:10A9F000D1F89C14D2F89C240B4343EA023383EA37
:10AA0000132282EA121202F00F020F2A12D1C3F3AC
:10AA10000F134FF6FF7293420CD0B3F5606F00F046
:10AA2000FF80ABF80C30019918EE102A50460EF05A
:10AA3000D9FF58E7D7F81C3E0133C7F81C3E002E5B
:10AA400000F0E08000230193EDE700BF80170020B5
:10AA500078280020602C05080122002187F81C2F8F
:10AA6000C7F8DC1D002B3FF422AF97F86018890768
:10AA700000F1BE80D7F85818086849798A40018CDF
:10AA800092B289B221EA02010184018C89B20A439F
:10AA9000012B02843FF40BAF97F8EC2812F0020F61
:10AAA000D7F8E42810685479018C0CBF01220422E5
:10AAB000A24092B289B221EA02010184018C89B2DA
:10AAC0000A43022B02843FF4F2AE97F8782912F081
:10AAD000020FD7F8702910685479018C0CBF01223D
:10AAE0000422A24092B289B221EA02010184018CBF
:10AAF00089B20A43032B02843FF4D9AE97F8042AA3
:10AB000012F0020FD7F8FC2910685479018C0CBFA1
:10AB100001220422A24092B289B221EA02010184F8
:10AB2000018C89B20A43042B02843FF4C0AE97F82B
:10AB3000902A12F0020FD7F8882A10685479018CF5
:10AB40000CBF01220422A24092B289B221EA020182
:10AB50000184018C89B20A43052B02843FF4A7AE1D
:10AB600097F81C2B12F0020FD7F8142B10685479A9
:10AB7000018C0CBF01220422A24092B289B221EAC8
:10AB800002010184018C89B20A43062B02843FF43E
:10AB90008EAE97F8A82B12F0020FD7F8A02B1068F2
:10ABA0005479018C0CBF01220422A24092B289B2D6
:10ABB00021EA02010184018C89B20A43082B028434
:10ABC0007FF475AED7F82C2C97F8343C1168507987
:10ABD0000A8C9B074CBF0423012383409BB292B293
:10ABE00022EA03020A840A8C92B213430B845EE6C3
:10ABF000D7F8582810685479018C0422A24089B2F1
:10AC000092B23FE703991148582247F0AEFF0196F0
:10AC100009E70024204605B0BDEC028BBDE8F08FAB
:10AC200097F8102D02EB420207EBC202324492F871
:10AC3000BD2C0D2A7FF4F5AE80238BF81E30F2E692
:10AC4000012287F81C2FC7F8DC3D31E6442600209E
:10AC500043680B4A23F0407323F4807343F48073FA
:10AC6000436083681A4042F002028260C36A01397D
:10AC7000CAB223F4700141EA0251C162704700BFB9
:10AC8000FDF7FFC0704700BF0020FDF7CBB900BF44
:10AC90000120FDF7C7B900BF0220FDF7C3B900BF0F
:10ACA00010B1036882881A83704700BF10B103682F
:10ACB00082885A83704700BF10B404698269E468CF
:10ACC000416814604024D460446900230C31C2E917
:10ACD0000433C2E90633C2E90833C2E90A33C2E9E0
:10ACE0000C3393609363516084B1C269E0689363ED
:10ACF000C2E90233C2E90433C2E90633C2E90833C8
:10AD0000C2E90A33C2E90C33C2E900015DF8044B21
:10AD1000704700BF436800221A60037D1F2B08D9CB
:10AD2000203B2022016802FA03F343F01803CB60B2
:10AD300070472022016802FA03F343F018038B6086
:10AD4000704700BF0268136A11B1D96901B31433A7
:10AD500030B49C681D689169DDB14FF480608861F2
:10AD60008D60104640690C6180B15968D369C9B1E2
:10AD70000A464FF480619A609961224312F0010FF4
:10AD800014BF00224FF400521A621C6130BC70479D
:10AD900070478D61054D4FF0FF0C05F888CF0068B6
:10ADA0008D60DFE7024A9A609961E6E7980100202A
:10ADB000CC2A00200168F8B5D1E90423044655687F
:10ADC000002B49D09861107D5E681F2831D8176824
:10ADD000202202FA00F040F01800B8601A7D1F2A05
:10ADE00032D91868203A202303FA02F242F01802FE
:10ADF000C26000232B6033603368896943F010031D
:10AE0000336028463FF06CFD23683046D9693FF037
:10AE100067FD2B68226843F001032B60336852689A
:10AE200043F00103336093889BB243F003039380A4
:10AE3000F8BD17682038202202FA00F040F0180010
:10AE4000F8601A7D1F2ACCD81868202303FA02F272
:10AE500042F018028260CCE7137D90611F2B1CD852
:10AE60001068202202FA03F343F0180383600023E2
:10AE70002B602B68896943F010032B6028463FF054
:10AE80002FFD2B68226843F0010352682B609388E2
:10AE90009BB243F002039380F8BD1068203B202250
:10AEA00002FA03F343F01803C360E0E72DE9F04131
:10AEB000794E074601253C6897F888806368B88812
:10AEC0001A8884F8245022F040021204120C1A80CE
:10AED000228982421AD0B0F5807F0246A8BF4FF483
:10AEE0008072022A1988B8BF0222002A92FAA2F2BE
:10AEF000B2FA82F289B208BF4FF0FF32013A21F074
:10AF0000380141EAC20292B21A802081397BA27ACA
:10AF10008A420CD01A8822F003021204120C1A8002
:10AF20001A8892B2002900F092801A80A1721A88C1
:10AF300092B242F040021A80226A9168002900F021
:10AF4000A1804FF0000C1432E64652F8100C8E44EB
:10AF500000EA060120B1B1F1805F23D0616909B335
:10AF600052F8140C143200EA060110B1B1F1805FFE
:10AF700018D052F80C1C0CF1010C0029E5D1227BF1
:10AF800082B1B8F1000F0DD0BCF1010F6DD8BEF148
:10AF9000070F6AD80CEB8C018900226A11440A7BE6
:10AFA000002A62D0226A92684FF00008002A51D02D
:10AFB000B8F1000F02D098F80C2022B1BA6812B193
:10AFC000116892884A83226AD2F800E0226A5168A6
:10AFD000226A9268501E9AB1BEF1000F23D01EF86B
:10AFE00001CB1A899207FCD5A3F80CC01A89D207A5
:10AFF000FCD59A8992B209B101F8012B0138EBD244
:10B00000236A1B7BE3B9236A1B697BB1236AD7F8E8
:10B0100094001B69984701280DD0022806D100230F
:10B020002362BDE8F0814FF0FF0CDAE7D4F820800E
:10B03000236A14332362236A9B685BB16368B7E7B2
:10B04000BB68002BDFD01A689B881383DBE742F0D4
:10B0500003026AE7236A1B68DBB1236AD3E9007243
:10B0600022620022C3E9002225E700213846FFF7CB
:10B0700069FEBB6813B11A689B8853833846BDE8E4
:10B08000F04197E6227B002A8CD0B8F1000F84D1E2
:10B0900088E72362C5E700BF0000FFFF08B51D2059
:10B0A0000FF00CF908B183794BB11E200FF006F9AF
:10B0B00008B1837903B108BD5523C38008BD55236A
:10B0C000C380F2E710B40C4C002304F5167C01E0B9
:10B0D000152B0CD003EB430201331CF80210814204
:10B0E000F6D122445DF8044B92F95A0270474FF0B2
:10B0F000FF305DF8044B70477828002070B502EBF4
:10B100004202104C4FEA820E4FF0000C22460EF124
:10B110000805634604E00133182B11D012F81CCF48
:10B120006045F8D192F801C08C45F4D15659002EF3
:10B13000F1D0C3EBC3030EEB8303181D204470BD95
:10B14000002070BD7C31050830B502EB4202104D85
:10B15000104C4FEA820C0CF10C0E2A46002304E03E
:10B160000133172B11D052F82C4FA042F8D114798B
:10B170008C42F5D152F80E40002CF1D02C2000FB6F
:10B1800003C303F10800284430BD002030BD00BFD8
:10B19000602C0508000001400348D0F89C300BB13A
:10B1A0008C301847704700BF980100200348D0F842
:10B1B000C0300BB1B0301847704700BF9801002075
:10B1C0000348D0F8E4300BB1D4301847704700BFC3
:10B1D000980100200348D0F808310BB1F830184727
:10B1E000704700BF980100200348D0F82C3113B1FC
:10B1F00000F58E7018477047980100200348D0F87A
:10B20000503113B100F5A070184770479801002025
:10B210000348D0F8743113B100F5B2701847704785
:10B22000980100200348D0F8983113B100F5C4709C
:10B2300018477047980100200348D0F8BC3113B17B
:10B2400000F5D67018477047980100200348D0F8E1
:10B25000E03113B100F5E8701847704798010020FD
:10B260000348D0F8043213B100F5FA70184770475C
:10B27000980100200348D0F8283213B100F5067079
:10B2800018477047980100200348D0F84C3213B19A
:10B2900000F50F7018477047980100200348D0F858
:10B2A000703213B100F518701847704798010020EC
:10B2B0000348D0F8943213B100F521701847704755
:10B2C000980100200348D0F8B83213B100F52A7075
:10B2D0001847704798010020094B0A4A013800EBD3
:10B2E000C00003EB8000116BD0F88C30064883421D
:10B2F0000CBF4FF400134FF480030B4313637047EC
:10B3000098010020003802400060024070B501380A
:10B310003C4C3D4D00EBC00C04EB8C0C9646DCF82D
:10B320008C603A4AAE420CBF4FF400154FF48005D2
:10B33000166B35431563CCF89C10CCF8A430344917
:10B34000DCF890308B424FEAC0023ED001F58061BC
:10B350008B423AD0A1F57A718B4247D001F58061DA
:10B360008B4243D0A1F57A718B4241D001F58061C7
:10B370008B423DD0A1F57A718B4235D001F58061C9
:10B380008B4231D0A1F57A718B4233D001F58061C7
:10B390008B422FD0A1F57A718B422DD001F58061BF
:10B3A0008B4229D0A1F57A718B4227D001F58061BB
:10B3B0008B4223D0A1F57A718B4221D0154D01F536
:10B3C00080618B4218BF002500E0134D104404EB50
:10B3D0008003CEF38711C3F8AC5093F8A100BDE809
:10B3E0007040002244F0ACBB0C4DEFE70C4DEDE794
:10B3F0000C4DEBE70C4DE9E70C4DE7E70C4DE5E7AD
:10B40000044DE3E79801002000600240003802404C
:10B41000106002400080002820800010008000188A
:10B42000008800100080201020800020008800206C
:10B430000080202060B182884FF00043B2FA82F28F
:10B44000D34005D0034A116821EA0301116053611A
:10B45000704700BF003C01400120FEF703B800BF69
:10B460000220FDF7FFBF00BF0420FDF7FBBF00BFB8
:10B470000820FDF7F7BF00BF1020FDF7F3BF00BFA6
:10B480004FF47870FDF7EEBF4FF47C40FDF7EABF54
:10B4900030B50C4683B0054618B3036803F13F434B
:10B4A00003F57E039B0A104A134493F8BC0743F04C
:10B4B00023FEA988009104F00303C4F381028DF8F0
:10B4C000043028688DF80520C4F300136946C4F3DE
:10B4D00041148DF806308DF807403FF0D3F803B0E3
:10B4E00030BD4FF0FF33DEE7602C050800B1CFE739
:10B4F000704700BF2DE9F043694B03610D4685B0ED
:10B500000446232011F000FF6B789BB1042B2269C5
:10B5100015D0012B137014D0236902221A70EB7816
:10B5200043B104F11008A97840460EF047FB0646E7
:10B5300000283FD10026304605B0BDE8F083012346
:10B5400013702B79013B13716B794FF00008434561
:10B5500008BF682304F1100723750DF105020123CC
:10B56000752138468DF805800EF0EAFB0646002866
:10B57000D2D0206945F092FA012341460DF106022E
:10B5800038460EF0DDFB9DF8063003F07E038DF8A3
:10B59000063008B1682B40D09DF8053003F07E03DB
:10B5A000682B8DF805303CD0702BC4D1042384F86F
:10B5B000D830C0E7E8780EF081FEA0612B78013327
:10B5C000DBB210B1C371222383710921FFF78EFF13
:10B5D000A069FFF765FB334AD2F81437632BFBD918
:10B5E0003148DFF8CC90314F0EF0BEFAA08202E075
:10B5F00059F8047B57B14046B84703460028F7D0B6
:10B60000206984F8D83045F049FA94E7E8780EF0DC
:10B6100055FE0EF0B3FE3E468DE7012384F8D83088
:10B6200089E70222062384F8D820194602AA384660
:10B630000EF086FBE0B19DF80D309DF80B209B00CD
:10B64000520002F0020203F0040313439DF80920A4
:10B6500002F0010213430BD0012B1DD0022B17D097
:10B6600003F00303032B13D0032011F00BFF62E759
:10B6700001230DF1070238460C210EF061FB002872
:10B68000F2D09DF8073013F00F03EDD0042B03D058
:10B69000012384F8D9304EE7002384F8D9304AE7F3
:10B6A000102B00208017002040420F00C989040899
:10B6B0002834050838B50C4BD3F8C052054404466D
:10B6C000A87D0EF0FBFD68B12E2201348271C47199
:10B6D0000121FFF70BFFA87D0EF0F0FD10B103680C
:10B6E00082885A8338BD00BF7828002070B5044690
:10B6F00090F8210144F23B3382B0A4F84C3108B9F0
:10B7000002B070BD0EF0DAFD0546002856D08388E1
:10B710002C4AB3FA83F32621202BC180E260C3F1C7
:10B720001F01EDD0284B294A03EB81030A440C3456
:10B73000C3F8104892F8D867FFF77CFE0021FFF7A6
:10B74000A7FEA9882868B1FA81F100F13F40C1F154
:10B750001F0100F57E00C9B2C0F387203FF062F9F7
:10B76000AA884FF00043B2FA82F2D3404FF400614E
:10B770000122684600938DF80620ADF8041043F0CE
:10B780005BFF134B334493F8C422F02A0CD8AA88E9
:10B790004FF00043B2FA82F2D340B1D00D490A68AB
:10B7A00013430B6002B070BD0B49F022885D83F833
:10B7B000C4220321002244F0C3F9E8E7014BE3600F
:10B7C0009EE700BFB590000880170020602C050898
:10B7D00078280020003C0140A09605080E4B70B56B
:10B7E000D3F81061002E14DD0C4C002503E0B542A7
:10B7F00004F120040DD0237F0135002BF7D0E06841
:10B800000028F4D0217DFFF743FEB54204F1200467
:10B81000F1D1012070BD00BF78280020001C00205D
:10B8200070B503792D4C002B14BF012200228AB081
:10B8300084F86C2703D184F840370AB070BD054600
:10B8400004F2747690F9001030460EF0B7F9AD7836
:10B85000002D37D1224B2348C4F80838012284F840
:10B860008027C4F87C570EF07FF903464FF47A70B6
:10B87000A4F8783711F048FDD4F87C3713B11A6872
:10B880009B881383184D0FCDEC46ACE80F000FCD0D
:10B89000ACE80F0095E803008CE8030069463046E9
:10B8A0000EF0CEF9D4F87427136A002BFCD1D4F82B
:10B8B0001417C4F83017012284F8402784F834376D
:10B8C0000AB070BD28460EF0F9FC05460028C1D02C
:10B8D0001E23C3800921FFF7DBFDBBE78017002093
:10B8E0009C1E0020801A06004834050870B50C46DE
:10B8F00082B015460646002839D0036803F13F435D
:10B9000003F57E039B0A1B4A134493F8BC0743F0DC
:10B91000F3FBB2880092B2FA82F304F003028DF8CE
:10B920000420C4F3810230688DF80520C3F11F03A1
:10B93000C4F30012C4F341148DF80740C3F3CC04E0
:10B9400000EB840403F007038DF806209B00226AB5
:10B950000F269D4006FA03F322EA03032362226ABC
:10B960001543694625623EF08DFE02B070BD4FF072
:10B97000FF33C8E7602C050800B1B7E7704700BF88
:10B980002DE9F043774D05EB001683B0D6F8CC32A5
:10B99000002B00F0938004464FEA001896F8D4027A
:10B9A00043F0AAFB96F8D432590903F01F02032989
:10B9B0004FF0010303FA02F300F09880042900F02D
:10B9C000858002297DD005EB0803013493F8D0026D
:10B9D0000EF074FCE4B2814610B112238371C4717D
:10B9E00005EB080393F8D1020EF068FC074610B18E
:10B9F0001323C471837105EB080393F8D2020EF090
:10BA00005DFC064610B11423C47183714544484659
:10BA100095F8D32201924A21FFF7AEFF019A3846EA
:10BA20002A21FFF7A9FF019A0A213046FFF7A4FF58
:10BA3000D5F8CC224C4B9A425DD04C4B9A424AD01E
:10BA40004B4B9A4262D04B4B9A426AD04A4B9A4235
:10BA500072D04A4B9A427AD049499088B1F8CE4286
:10BA6000B1F8CC32B1F8D6522343B1F8D0422343D7
:10BA7000B1F8D24220F003002343B1F8D4420004CD
:10BA8000000C2343B1F8D84290802B431088234305
:10BA9000B1F8DA42B1F8DC1200F441502343034319
:10BAA0009BB21380938B23F400631B041B0C9383C2
:10BAB000118213889BB243F04003138003B0BDE8AA
:10BAC000F083304A516A0B4353627CE72D4A116977
:10BAD0000B43136177E703F50033196A41F48041A2
:10BAE0001962196A21F480411962B5E7254A116A81
:10BAF0000B43136267E703F58433596A41F48051BD
